:020000040800F2
:10000000A8070020210200088B04000883040008D0
:1000100087040008DB0200088106000800000000D9
:10002000000000000000000000000000890100083E
:10003000DF02000800000000CD010008ED05000807
:100040003B0200083B0200083B0200083B0200089C
:100050003B0200083B0200083B0200083B0200088C
:100060003B0200083B0200083B0200083B0200087C
:100070003B0200083B0200083B0200083B0200086C
:100080003B0200083B0200083B0200083B0200085C
:100090003B0200083B0200083B0200083B0200084C
:1000A0003B0200083B0200083B0200083B0200083C
:1000B0003B0200083B0200083B0200083B0200082C
:1000C0003B0200083B0200083B0200083B0200081C
:1000D0003B0200083B0200083B0200083B0200080C
:1000E0003B0200083B0200083B02000800F002F857
:1000F00000F03AF80AA090E8000C82448344AAF188
:100100000107DA4501D100F02FF8AFF2090EBAE885
:100110000F0013F0010F18BFFB1A43F0010318473B
:10012000140E0000340E0000103A24BF78C878C1C5
:10013000FAD8520724BF30C830C144BF04680C60ED
:10014000704700000023002400250026103A28BF35
:1001500078C1FBD8520728BF30C148BF0B60704739
:100160001FB51FBD10B510BD00F07DF81146FFF79B
:10017000F7FF00F08BFB00F09BF803B4FFF7F2FFF2
:1001800003BC00F0A3F80000224B19680868B0E82F
:10019000F00F80F30988BFF36F8F4FF0000080F3FA
:1001A00011884EF00D0E70470000000006480068F0
:1001B000006880F3088862B661B6BFF34F8FBFF363
:1001C0006F8F00DF00BF00BF08ED00E0EFF3098094
:1001D000BFF36F8F0F4B1A6820E9F00F106008B55E
:1001E0004FF0BF0080F31188BFF34F8FBFF36F8FC5
:1001F00000F0A0FD4FF0000080F31188BDE808403A
:1002000019680868B0E8F00F80F30988BFF36F8FB2
:10021000704700BF40000020EFF3058070470000EA
:100220000948804709480047FEE7FEE7FEE7FEE78A
:10023000FEE7FEE7FEE7FEE7FEE7FEE704480549C6
:10024000054A064B7047000021060008ED00000833
:10025000A8010020A8070020A8030020A803002070
:10026000704770477047754600F02CF8AE460500A1
:100270006946534620F00700854618B020B5FFF7C1
:10028000DDFFBDE820404FF000064FF000074FF0C3
:1002900000084FF0000B21F00701AC46ACE8C009A4
:1002A000ACE8C009ACE8C009ACE8C0098D467047AD
:1002B00010B50446AFF300802046BDE81040FFF7BC
:1002C0005CBF000000487047480100200149182029
:1002D000ABBEFEE726000200704700BFFEE7704796
:1002E00000B5034603E04FF47A7000F005F8181EDD
:1002F000A3F10103F7D100BD00EBC001C9004FF02D
:10030000E0225161002191610521116100BF4FF090
:10031000E021096901F480310029F8D004214FF06F
:10032000E02211617047000070B504460448005D8A
:1003300040F400752946034800F09CF870BD0000A9
:10034000240F0008000801402DE9F0410246002575
:100350000026002000230024002791F803C00CF0A1
:100360000F0591F803C00CF0100CBCF1000F03D086
:1003700091F802C04CEA050591F800C0BCF1000FED
:1003800031D0146800202BE04FF0010C0CFA00F380
:10039000B1F800C00CEA03069E4220D183004FF062
:1003A0000F0C0CFA03F7BC4305FA03FC4CEA0404F7
:1003B00091F803C0BCF1280F06D14FF0010C0CFAE4
:1003C00000FCC2F814C00AE091F803C0BCF1480F69
:1003D00005D14FF0010C0CFA00FCC2F810C0401C13
:1003E0000828D1D31460B1F800C0BCF1FF0F34DD90
:1003F000546800202EE000F1080C4FF0010808FAC4
:100400000CF3B1F800C00CEA03069E4221D1830030
:100410004FF00F0C0CFA03F7BC4305FA03FC4CEA4F
:10042000040491F803C0BCF1280F05D100F1080CB9
:1004300008FA0CF8C2F8148091F803C0BCF1480F18
:1004400007D100F1080C4FF0010808FA0CF8C2F8C7
:100450001080401C0828CED35460BDE8F0810246CD
:10046000002093680B400BB1012000E00020704792
:1004700001617047C16070470AB1016100E04161EC
:10048000704700BFFEE700BFFEE7704729B1064A8C
:1004900092690243044B9A6104E0034A92698243E1
:1004A000014B9A61704700000010024008B501211D
:1004B0000420FFF7EBFF40F2FF20ADF80000102012
:1004C0008DF8030003208DF8020069460148FFF70C
:1004D0003BFF08BD0008014008B501210820FFF7D7
:1004E000D5FF10208DF80300C002ADF800000320F6
:1004F0008DF8020069460248FFF726FF08BD00009C
:10050000000C014010B500F001F810BD0CB5002042
:10051000019000903348006840F480303149086011
:1005200000BF3048006800F4003000900198401C83
:100530000190009818B90198B0F5A06FF1D1294841
:10054000006800F4003010B10120009001E00020AC
:1005500000900098012843D12348006840F0100023
:10056000214908600846006820F00300086008463A
:10057000006840F0020008601A4840681949486065
:100580000846406848600846406840F4806048601B
:100590000846406820F47C1048600846406840F4F3
:1005A000E81048600846006840F08070086000BFAE
:1005B0000C48006800F000700028F9D00948406835
:1005C00020F00300074948600846406840F00200F8
:1005D000486000BF0348406800F00C000828F9D1CB
:1005E0000CBD0000001002400020024010B500BF0A
:1005F000BF2080F31188BFF34F8FBFF36F8F00BF11
:1006000000F0C8FB18B14FF080500449086000BFEB
:10061000002080F3118800BF10BD000004ED00E051
:1006200010B51348006840F0010011490860084601
:100630004068104908400E494860084600680E4965
:1006400008400B4908600846006820F480200860D4
:100650000846406820F4FE0048604FF41F008860A0
:10066000FFF750FF4FF000600449086010BD000024
:10067000001002400000FFF8FFFFF6FE08ED00E06A
:1006800000BFFEE708B501210820FFF7FFFE482064
:100690008DF8030047F6FF70ADF8000003208DF8D9
:1006A000020069460448FFF74FFE47F6FF71024813
:1006B000FFF7DEFE08BD0000000C014070B50546E6
:1006C000002401217048FFF7CAFE40B91420FFF74B
:1006D00007FE01216C48FFF7C2FE00B90124022188
:1006E0006948FFF7BCFE40B91420FFF7F9FD02216D
:1006F0006548FFF7B4FE00B9022404216248FFF701
:10070000AEFE40B91420FFF7EBFD04215E48FFF771
:10071000A6FE00B9032408215B48FFF7A0FE40B9FC
:100720001420FFF7DDFD08215748FFF798FE00B9B8
:10073000042410215448FFF792FE40B91420FFF71B
:10074000CFFD10215048FFF78AFE00B90524202173
:100750004D48FFF784FE40B91420FFF7C1FD20216A
:100760004948FFF77CFE00B9062440214648FFF7C0
:1007700076FE40B91420FFF7B3FD40214248FFF751
:100780006EFE00B9072480213F48FFF768FE40B99C
:100790001420FFF7A5FD80213B48FFF760FE00B95C
:1007A00008244FF480713848FFF759FE48B91420E7
:1007B000FFF796FD4FF480713348FFF750FE00B904
:1007C00009244FF400713048FFF749FE48B914205E
:1007D000FFF786FD4FF400712B48FFF740FE00B98C
:1007E0000A244FF480612848FFF739FE48B91420E5
:1007F000FFF776FD4FF480612348FFF730FE00B924
:100800000B244FF400612048FFF729FE48B914205B
:10081000FFF766FD4FF400611B48FFF720FE00B9AB
:100820000C244FF480511848FFF719FE48B91420E2
:10083000FFF756FD4FF480511348FFF710FE00B943
:100840000D244FF400511048FFF709FE48B9142059
:10085000FFF746FD4FF400510B48FFF700FE00B9CB
:100860000E244FF480410848FFF7F9FD48B91420E1
:10087000FFF736FD4FF480410348FFF7F0FD00B964
:100880000F24204670BD0000000C0140FFF7FAFE67
:10089000FFF70CFEFFF720FE0122D1038648FFF789
:1008A000EBFD07E10120FFF709FF844908700020F4
:1008B00000F014F982480088401C81490880814872
:1008C0000068002841D18048006800F00AFA7F499A
:1008D0000968884207DD7D480068002803DD0220A2
:1008E000784908600FE07A48006860B97748006886
:1008F00048B102217548006800F0CAF975490860DE
:100900000120704908607048006800F0EAF97049F9
:100910000968884206DA6E48006818B10120694902
:100920000860BFE0694800680028FAD1684800689C
:100930000028F6D001216648006800F0A9F9664950
:10094000086002205F490860ACE05E48006801284A
:1009500052D15B480088C82190FBF1F201FB1200E4
:1009600038BB59480068401C574908600846006871
:1009700000F0B7F95649096800EA010252480068D8
:1009800000F0AFF982420BD15248006840B9002014
:100990004C4908604C490878FFF7C6FC00F04EF956
:1009A0004948006800F09DF9494909688143484871
:1009B00001604748006810B100204649086042487D
:1009C000006800F08EF94349096888426AD13E49BF
:1009D0000878FFF7A9FC00F031F93B48006800F007
:1009E00080F93A4909688143384801600020394953
:1009F00008603449086055E032480068022851D147
:100A00002F480088C82190FBF1F201FB120038BB8F
:100A10002D480068401E2C4908600846006800F018
:100A200060F92A49096800EA01022748006800F0D5
:100A300058F982420BD12848006840B9002021496A
:100A4000086021490878FFF76FFC00F0F7F81E48AE
:100A5000006800F046F91D49096881431B480160A0
:100A60001A48006810B100201B4908601648006849
:100A700000F037F918490968884213D112490878FB
:100A8000FFF752FC00F0DAF80F48006800F029F98F
:100A90000F49096881430E48016000200E49086033
:100AA0000849086008490878FFF73EFC4FF47A705F
:100AB000FFF716FCF6E60000000C014000000020E5
:100AC000280000203C000020240000202C000020F2
:100AD00030000020340000203800002010B504460B
:100AE00051480078012805D15048006840F00100C5
:100AF0004E4908604C480078022805D14C480068EF
:100B000040F001004A49086047480078032805D1B1
:100B10004648006840F002004449086042480078B6
:100B2000042805D14248006840F0020040490860AE
:100B30003D480078052805D13C48006840F0040095
:100B40003A49086038480078062805D138480068D6
:100B500040F004003649086033480078072805D182
:100B60003248006840F00800304908602E4800789C
:100B7000082805D12E48006840F008002C4908607C
:100B800029480078092805D12848006840F001006C
:100B900026490860244800780A281FD125480068A3
:100BA00001280AD124480068022817DD204800687F
:100BB00040F008001E49086010E01E480068022846
:100BC00006D11B48006840F008001949086005E09C
:100BD0001748006840F0080015490860124800787E
:100BE0000B2801D1FFF7A0FB0F4800780C2805D196
:100BF0000F48006840F008000D4908600A48007876
:100C00000D2801D1FFF790FB074800780E2802D18C
:100C10000220FFF789FB044800780F2802D1032047
:100C2000FFF782FB10BD0000000000202C00002018
:100C3000300000203C0000202400002010B50020DF
:100C400004461CE00120FFF739FD0F490870002021
:100C5000FFF744FF641C642C05D100224FF40041CF
:100C60000A48FFF709FC4FF47A70FFF739FBB4F537
:100C7000C87F04D10122D1030448FFF7FDFBB4F57E
:100C8000C87FDFDB10BD000000000020000C014029
:100C90000246012910D102F0010008B1012070477D
:100CA00002F0020008B10220F9E702F0040008B1E6
:100CB0000420F4E70820F2E7022910D102F008002E
:100CC00008B10820EBE702F0040008B10420E6E7D1
:100CD00002F0020008B10220E1E70120DFE700BFD7
:100CE000DDE70146012904D0022904D0032906D1F9
:100CF00003E0012070470220FCE70420FAE7082007
:100D0000F8E7000009480068006808B9012000E021
:100D1000002020B14FF0FF300549086005E003488E
:100D20000068C068006802490860704744000020FD
:100D3000700000201248006818B1012011490860B5
:100D40001DE000200F4908600F480068B0FA80F0ED
:100D5000C0F11F0101EB81020C4B03EB82004268E2
:100D60005268426000F108024368934202D142682F
:100D7000526842604268D268054B1A6000BF7047F3
:100D80007C0000206400002058000020800000202B
:100D9000400000202DE9F041002757480068002856
:100DA0007ED156480068451C544805608DB95448AA
:100DB000D0F8008053480068514908605148C0F895
:100DC000008051480068401C4F490860FFF79AFFB7
:100DD00000BF4E480068854276D300BF484800688F
:100DE000006808B9012000E0002020B14FF0FF307A
:100DF0004649086067E042480068C068C4686668A1
:100E0000B54202D2414806605DE06069D4E9021251
:100E10008A60D4E902214A60211D42688A4201D1D8
:100E2000E1684160002262610168491E0160A06AB8
:100E300098B1A06AD4E907128A60D4E907214A6010
:100E400004F1180142688A4201D1216A41600022FE
:100E5000A2620168491E016000BF94F82C100120B5
:100E600088402B490968084329490860E16A01EB79
:100E70008101284A02EB81014868A0608268E26033
:100E8000211D826851608160E16A01EB8101214A84
:100E900002EB81026261E16A01EB81011D4A00E01F
:100EA00022E052F82110491CE26A02EB8202194B3F
:100EB00043F822101849E06A0968C96A88428DD34C
:100EC00001278BE700E000BF13480068C06A00EB11
:100ED0008000104951F82000012800D901270F484F
:100EE000006800B1012704E00D480068401C0C496F
:100EF00008603846BDE8F0817C00002054000020E6
:100F000044000020480000206800002070000020FD
:100F100058000020800000204000002064000020D5
:100F200060000020C0F9A4B0999282F88090888374
:100F3000C6A1868E540F000800000020800000002B
:100F400028010008D40F00088000002028070000B6
:100F50004401000800003F0006005B004F006600EF
:100F60007D0007007F006F0000000000000000000F
:100F70000000000000000000010000000000000070
:100F80000000000000000000000000000000000061
:100F90000000000000000000000000000000000051
:100FA0000000000000000000000000000000000041
:100FB0000000000000000000000000000000000031
:100FC000000000000000000000000000040000001D
:040FD000000000001D
:04000005080000ED02
:00000001FF
